{
  "_format": "hh-sol-artifact-1",
  "contractName": "BetterFunds",
  "sourceName": "contracts/BetterFunds.sol",
  "abi": [
    {
      "inputs": [],
      "stateMutability": "nonpayable",
      "type": "constructor"
    },
    {
      "inputs": [
        {
          "internalType": "address",
          "name": "spender",
          "type": "address"
        },
        {
          "internalType": "uint256",
          "name": "allowance",
          "type": "uint256"
        },
        {
          "internalType": "uint256",
          "name": "needed",
          "type": "uint256"
        }
      ],
      "name": "ERC20InsufficientAllowance",
      "type": "error"
    },
    {
      "inputs": [
        {
          "internalType": "address",
          "name": "sender",
          "type": "address"
        },
        {
          "internalType": "uint256",
          "name": "balance",
          "type": "uint256"
        },
        {
          "internalType": "uint256",
          "name": "needed",
          "type": "uint256"
        }
      ],
      "name": "ERC20InsufficientBalance",
      "type": "error"
    },
    {
      "inputs": [
        {
          "internalType": "address",
          "name": "approver",
          "type": "address"
        }
      ],
      "name": "ERC20InvalidApprover",
      "type": "error"
    },
    {
      "inputs": [
        {
          "internalType": "address",
          "name": "receiver",
          "type": "address"
        }
      ],
      "name": "ERC20InvalidReceiver",
      "type": "error"
    },
    {
      "inputs": [
        {
          "internalType": "address",
          "name": "sender",
          "type": "address"
        }
      ],
      "name": "ERC20InvalidSender",
      "type": "error"
    },
    {
      "inputs": [
        {
          "internalType": "address",
          "name": "spender",
          "type": "address"
        }
      ],
      "name": "ERC20InvalidSpender",
      "type": "error"
    },
    {
      "anonymous": false,
      "inputs": [
        {
          "indexed": true,
          "internalType": "address",
          "name": "owner",
          "type": "address"
        },
        {
          "indexed": true,
          "internalType": "address",
          "name": "spender",
          "type": "address"
        },
        {
          "indexed": false,
          "internalType": "uint256",
          "name": "value",
          "type": "uint256"
        }
      ],
      "name": "Approval",
      "type": "event"
    },
    {
      "anonymous": false,
      "inputs": [
        {
          "indexed": false,
          "internalType": "uint256",
          "name": "id",
          "type": "uint256"
        }
      ],
      "name": "Cancel",
      "type": "event"
    },
    {
      "anonymous": false,
      "inputs": [
        {
          "indexed": true,
          "internalType": "uint256",
          "name": "id",
          "type": "uint256"
        },
        {
          "indexed": true,
          "internalType": "address",
          "name": "caller",
          "type": "address"
        },
        {
          "indexed": false,
          "internalType": "uint256",
          "name": "amount",
          "type": "uint256"
        }
      ],
      "name": "Contribute",
      "type": "event"
    },
    {
      "anonymous": false,
      "inputs": [
        {
          "indexed": false,
          "internalType": "uint256",
          "name": "id",
          "type": "uint256"
        },
        {
          "indexed": true,
          "internalType": "address",
          "name": "creator",
          "type": "address"
        },
        {
          "indexed": false,
          "internalType": "uint256",
          "name": "startAt",
          "type": "uint256"
        }
      ],
      "name": "Launch",
      "type": "event"
    },
    {
      "anonymous": false,
      "inputs": [
        {
          "indexed": false,
          "internalType": "uint256",
          "name": "val",
          "type": "uint256"
        }
      ],
      "name": "Log",
      "type": "event"
    },
    {
      "anonymous": false,
      "inputs": [
        {
          "indexed": false,
          "internalType": "uint256",
          "name": "id",
          "type": "uint256"
        },
        {
          "indexed": true,
          "internalType": "address",
          "name": "contributor",
          "type": "address"
        },
        {
          "indexed": false,
          "internalType": "uint256",
          "name": "token_count",
          "type": "uint256"
        }
      ],
      "name": "Mint",
      "type": "event"
    },
    {
      "anonymous": false,
      "inputs": [
        {
          "indexed": false,
          "internalType": "uint256",
          "name": "id",
          "type": "uint256"
        },
        {
          "indexed": true,
          "internalType": "address",
          "name": "caller",
          "type": "address"
        },
        {
          "indexed": false,
          "internalType": "uint256",
          "name": "amount",
          "type": "uint256"
        }
      ],
      "name": "Refund",
      "type": "event"
    },
    {
      "anonymous": false,
      "inputs": [
        {
          "indexed": true,
          "internalType": "address",
          "name": "from",
          "type": "address"
        },
        {
          "indexed": true,
          "internalType": "address",
          "name": "to",
          "type": "address"
        },
        {
          "indexed": false,
          "internalType": "uint256",
          "name": "value",
          "type": "uint256"
        }
      ],
      "name": "Transfer",
      "type": "event"
    },
    {
      "inputs": [
        {
          "internalType": "address",
          "name": "owner",
          "type": "address"
        },
        {
          "internalType": "address",
          "name": "spender",
          "type": "address"
        }
      ],
      "name": "allowance",
      "outputs": [
        {
          "internalType": "uint256",
          "name": "",
          "type": "uint256"
        }
      ],
      "stateMutability": "view",
      "type": "function"
    },
    {
      "inputs": [
        {
          "internalType": "address",
          "name": "spender",
          "type": "address"
        },
        {
          "internalType": "uint256",
          "name": "value",
          "type": "uint256"
        }
      ],
      "name": "approve",
      "outputs": [
        {
          "internalType": "bool",
          "name": "",
          "type": "bool"
        }
      ],
      "stateMutability": "nonpayable",
      "type": "function"
    },
    {
      "inputs": [
        {
          "internalType": "address",
          "name": "account",
          "type": "address"
        }
      ],
      "name": "balanceOf",
      "outputs": [
        {
          "internalType": "uint256",
          "name": "",
          "type": "uint256"
        }
      ],
      "stateMutability": "view",
      "type": "function"
    },
    {
      "inputs": [
        {
          "internalType": "uint256",
          "name": "price",
          "type": "uint256"
        }
      ],
      "name": "buyProduct",
      "outputs": [],
      "stateMutability": "nonpayable",
      "type": "function"
    },
    {
      "inputs": [
        {
          "internalType": "uint256",
          "name": "_id",
          "type": "uint256"
        }
      ],
      "name": "cancel",
      "outputs": [],
      "stateMutability": "nonpayable",
      "type": "function"
    },
    {
      "inputs": [
        {
          "internalType": "uint256",
          "name": "_id",
          "type": "uint256"
        }
      ],
      "name": "contribute",
      "outputs": [],
      "stateMutability": "payable",
      "type": "function"
    },
    {
      "inputs": [],
      "name": "count",
      "outputs": [
        {
          "internalType": "uint256",
          "name": "",
          "type": "uint256"
        }
      ],
      "stateMutability": "view",
      "type": "function"
    },
    {
      "inputs": [],
      "name": "decimals",
      "outputs": [
        {
          "internalType": "uint8",
          "name": "",
          "type": "uint8"
        }
      ],
      "stateMutability": "view",
      "type": "function"
    },
    {
      "inputs": [
        {
          "internalType": "uint256",
          "name": "",
          "type": "uint256"
        }
      ],
      "name": "ideas",
      "outputs": [
        {
          "internalType": "address",
          "name": "innovator",
          "type": "address"
        },
        {
          "internalType": "uint256",
          "name": "contributed",
          "type": "uint256"
        },
        {
          "internalType": "uint256",
          "name": "goal",
          "type": "uint256"
        },
        {
          "internalType": "uint256",
          "name": "startAt",
          "type": "uint256"
        },
        {
          "internalType": "uint256",
          "name": "endAt",
          "type": "uint256"
        },
        {
          "internalType": "bool",
          "name": "completed",
          "type": "bool"
        }
      ],
      "stateMutability": "view",
      "type": "function"
    },
    {
      "inputs": [
        {
          "internalType": "uint256",
          "name": "_goal",
          "type": "uint256"
        }
      ],
      "name": "launch",
      "outputs": [],
      "stateMutability": "nonpayable",
      "type": "function"
    },
    {
      "inputs": [],
      "name": "maxDuration",
      "outputs": [
        {
          "internalType": "uint256",
          "name": "",
          "type": "uint256"
        }
      ],
      "stateMutability": "view",
      "type": "function"
    },
    {
      "inputs": [],
      "name": "name",
      "outputs": [
        {
          "internalType": "string",
          "name": "",
          "type": "string"
        }
      ],
      "stateMutability": "view",
      "type": "function"
    },
    {
      "inputs": [],
      "name": "symbol",
      "outputs": [
        {
          "internalType": "string",
          "name": "",
          "type": "string"
        }
      ],
      "stateMutability": "view",
      "type": "function"
    },
    {
      "inputs": [
        {
          "internalType": "uint256",
          "name": "",
          "type": "uint256"
        },
        {
          "internalType": "address",
          "name": "",
          "type": "address"
        }
      ],
      "name": "totalContributed",
      "outputs": [
        {
          "internalType": "uint256",
          "name": "",
          "type": "uint256"
        }
      ],
      "stateMutability": "view",
      "type": "function"
    },
    {
      "inputs": [],
      "name": "totalSupply",
      "outputs": [
        {
          "internalType": "uint256",
          "name": "",
          "type": "uint256"
        }
      ],
      "stateMutability": "view",
      "type": "function"
    },
    {
      "inputs": [
        {
          "internalType": "uint256",
          "name": "",
          "type": "uint256"
        },
        {
          "internalType": "address",
          "name": "",
          "type": "address"
        }
      ],
      "name": "totalTokens",
      "outputs": [
        {
          "internalType": "uint256",
          "name": "",
          "type": "uint256"
        }
      ],
      "stateMutability": "view",
      "type": "function"
    },
    {
      "inputs": [
        {
          "internalType": "address",
          "name": "to",
          "type": "address"
        },
        {
          "internalType": "uint256",
          "name": "value",
          "type": "uint256"
        }
      ],
      "name": "transfer",
      "outputs": [
        {
          "internalType": "bool",
          "name": "",
          "type": "bool"
        }
      ],
      "stateMutability": "nonpayable",
      "type": "function"
    },
    {
      "inputs": [
        {
          "internalType": "address",
          "name": "from",
          "type": "address"
        },
        {
          "internalType": "address",
          "name": "to",
          "type": "address"
        },
        {
          "internalType": "uint256",
          "name": "value",
          "type": "uint256"
        }
      ],
      "name": "transferFrom",
      "outputs": [
        {
          "internalType": "bool",
          "name": "",
          "type": "bool"
        }
      ],
      "stateMutability": "nonpayable",
      "type": "function"
    }
  ],
  "bytecode": "0x60806040523480156200001157600080fd5b506040518060400160405280600e81526020017f506170706164616d20546f6b656e0000000000000000000000000000000000008152506040518060400160405280600381526020017f50444d000000000000000000000000000000000000000000000000000000000081525081600390816200008f91906200036f565b508060049081620000a191906200036f565b50505033600760006101000a81548173ffffffffffffffffffffffffffffffffffffffff021916908373ffffffffffffffffffffffffffffffffffffffff16021790555062278d0060068190555062000456565b600081519050919050565b7f4e487b7100000000000000000000000000000000000000000000000000000000600052604160045260246000fd5b7f4e487b7100000000000000000000000000000000000000000000000000000000600052602260045260246000fd5b600060028204905060018216806200017757607f821691505b6020821081036200018d576200018c6200012f565b5b50919050565b60008190508160005260206000209050919050565b60006020601f8301049050919050565b600082821b905092915050565b600060088302620001f77fffffffffffffffffffffffffffffffffffffffffffffffffffffffffffffffff82620001b8565b620002038683620001b8565b95508019841693508086168417925050509392505050565b6000819050919050565b6000819050919050565b6000620002506200024a62000244846200021b565b62000225565b6200021b565b9050919050565b6000819050919050565b6200026c836200022f565b620002846200027b8262000257565b848454620001c5565b825550505050565b600090565b6200029b6200028c565b620002a881848462000261565b505050565b5b81811015620002d057620002c460008262000291565b600181019050620002ae565b5050565b601f8211156200031f57620002e98162000193565b620002f484620001a8565b8101602085101562000304578190505b6200031c6200031385620001a8565b830182620002ad565b50505b505050565b600082821c905092915050565b6000620003446000198460080262000324565b1980831691505092915050565b60006200035f838362000331565b9150826002028217905092915050565b6200037a82620000f5565b67ffffffffffffffff81111562000396576200039562000100565b5b620003a282546200015e565b620003af828285620002d4565b600060209050601f831160018114620003e75760008415620003d2578287015190505b620003de858262000351565b8655506200044e565b601f198416620003f78662000193565b60005b828110156200042157848901518255600182019150602085019450602081019050620003fa565b868310156200044157848901516200043d601f89168262000331565b8355505b6001600288020188555050505b505050505050565b61204380620004666000396000f3fe6080604052600436106101095760003560e01c806370a082311161009557806395d89b411161006457806395d89b4114610396578063a9059cbb146103c1578063c1cbbca7146103fe578063d66648ce1461041a578063dd62ed3e1461045757610109565b806370a08231146102c557806385b12c7c146103025780638642269e1461032b57806395b538371461035457610109565b806323b872dd116100dc57806323b872dd146101cc578063313ce5671461020957806340e58ee51461023457806369b23b781461025d5780636db5c8fd1461029a57610109565b806306661abd1461010e57806306fdde0314610139578063095ea7b31461016457806318160ddd146101a1575b600080fd5b34801561011a57600080fd5b50610123610494565b604051610130919061172a565b60405180910390f35b34801561014557600080fd5b5061014e61049a565b60405161015b91906117d5565b60405180910390f35b34801561017057600080fd5b5061018b60048036038101906101869190611886565b61052c565b60405161019891906118e1565b60405180910390f35b3480156101ad57600080fd5b506101b661054f565b6040516101c3919061172a565b60405180910390f35b3480156101d857600080fd5b506101f360048036038101906101ee91906118fc565b610559565b60405161020091906118e1565b60405180910390f35b34801561021557600080fd5b5061021e610588565b60405161022b919061196b565b60405180910390f35b34801561024057600080fd5b5061025b60048036038101906102569190611986565b610591565b005b34801561026957600080fd5b50610284600480360381019061027f91906119b3565b61080c565b604051610291919061172a565b60405180910390f35b3480156102a657600080fd5b506102af610831565b6040516102bc919061172a565b60405180910390f35b3480156102d157600080fd5b506102ec60048036038101906102e791906119f3565b610837565b6040516102f9919061172a565b60405180910390f35b34801561030e57600080fd5b5061032960048036038101906103249190611986565b61087f565b005b34801561033757600080fd5b50610352600480360381019061034d9190611986565b6109e9565b005b34801561036057600080fd5b5061037b60048036038101906103769190611986565b6109f6565b60405161038d96959493929190611a2f565b60405180910390f35b3480156103a257600080fd5b506103ab610a5f565b6040516103b891906117d5565b60405180910390f35b3480156103cd57600080fd5b506103e860048036038101906103e39190611886565b610af1565b6040516103f591906118e1565b60405180910390f35b61041860048036038101906104139190611986565b610b14565b005b34801561042657600080fd5b50610441600480360381019061043c91906119b3565b610fc3565b60405161044e919061172a565b60405180910390f35b34801561046357600080fd5b5061047e60048036038101906104799190611a90565b610fe8565b60405161048b919061172a565b60405180910390f35b60055481565b6060600380546104a990611aff565b80601f01602080910402602001604051908101604052809291908181526020018280546104d590611aff565b80156105225780601f106104f757610100808354040283529160200191610522565b820191906000526020600020905b81548152906001019060200180831161050557829003601f168201915b5050505050905090565b60008061053761106f565b9050610544818585611077565b600191505092915050565b6000600254905090565b60008061056461106f565b9050610571858285611089565b61057c85858561111d565b60019150509392505050565b60006012905090565b6000600860008381526020019081526020016000206040518060c00160405290816000820160009054906101000a900473ffffffffffffffffffffffffffffffffffffffff1673ffffffffffffffffffffffffffffffffffffffff1673ffffffffffffffffffffffffffffffffffffffff168152602001600182015481526020016002820154815260200160038201548152602001600482015481526020016005820160009054906101000a900460ff16151515158152505090503373ffffffffffffffffffffffffffffffffffffffff16816000015173ffffffffffffffffffffffffffffffffffffffff1614806106db5750600760009054906101000a900473ffffffffffffffffffffffffffffffffffffffff1673ffffffffffffffffffffffffffffffffffffffff16816000015173ffffffffffffffffffffffffffffffffffffffff16145b61071a576040517f08c379a000000000000000000000000000000000000000000000000000000000815260040161071190611b7c565b60405180910390fd5b80606001514210610760576040517f08c379a000000000000000000000000000000000000000000000000000000000815260040161075790611be8565b60405180910390fd5b60086000838152602001908152602001600020600080820160006101000a81549073ffffffffffffffffffffffffffffffffffffffff021916905560018201600090556002820160009055600382016000905560048201600090556005820160006101000a81549060ff021916905550507f8bf30e7ff26833413be5f69e1d373744864d600b664204b4a2f9844a8eedb9ed82604051610800919061172a565b60405180910390a15050565b600a602052816000526040600020602052806000526040600020600091509150505481565b60065481565b60008060008373ffffffffffffffffffffffffffffffffffffffff1673ffffffffffffffffffffffffffffffffffffffff168152602001908152602001600020549050919050565b6040518060c001604052803373ffffffffffffffffffffffffffffffffffffffff16815260200160008152602001828152602001428152602001600654426108c79190611c37565b81526020016000151581525060086000600554815260200190815260200160002060008201518160000160006101000a81548173ffffffffffffffffffffffffffffffffffffffff021916908373ffffffffffffffffffffffffffffffffffffffff1602179055506020820151816001015560408201518160020155606082015181600301556080820151816004015560a08201518160050160006101000a81548160ff02191690831515021790555090505060016005600082825461098d9190611c37565b925050819055503373ffffffffffffffffffffffffffffffffffffffff167fbee4ed2238577047373d7cf3657cd0beea1dd6b7aa6a361a6ba5a93701ccf8b2600554426040516109de929190611c6b565b60405180910390a250565b6109f33382611211565b50565b60086020528060005260406000206000915090508060000160009054906101000a900473ffffffffffffffffffffffffffffffffffffffff16908060010154908060020154908060030154908060040154908060050160009054906101000a900460ff16905086565b606060048054610a6e90611aff565b80601f0160208091040260200160405190810160405280929190818152602001828054610a9a90611aff565b8015610ae75780601f10610abc57610100808354040283529160200191610ae7565b820191906000526020600020905b815481529060010190602001808311610aca57829003601f168201915b5050505050905090565b600080610afc61106f565b9050610b0981858561111d565b600191505092915050565b600060086000838152602001908152602001600020905060003411610b6e576040517f08c379a0000000000000000000000000000000000000000000000000000000008152600401610b6590611ce0565b60405180910390fd5b8060040154421115610bb5576040517f08c379a0000000000000000000000000000000000000000000000000000000008152600401610bac90611d4c565b60405180910390fd5b633b9aca0034610bc59190611d9b565b816001016000828254610bd89190611c37565b9250508190555060006009600084815260200190815260200160002060003373ffffffffffffffffffffffffffffffffffffffff1673ffffffffffffffffffffffffffffffffffffffff1681526020019081526020016000205403610cac57600b6000838152602001908152602001600020339080600181540180825580915050600190039060005260206000200160009091909190916101000a81548173ffffffffffffffffffffffffffffffffffffffff021916908373ffffffffffffffffffffffffffffffffffffffff1602179055505b633b9aca0034610cbc9190611d9b565b6009600084815260200190815260200160002060003373ffffffffffffffffffffffffffffffffffffffff1673ffffffffffffffffffffffffffffffffffffffff1681526020019081526020016000206000828254610d1b9190611c37565b925050819055506064633b9aca0034610d349190611d9b565b610d3e9190611d9b565b600a600084815260200190815260200160002060003373ffffffffffffffffffffffffffffffffffffffff1673ffffffffffffffffffffffffffffffffffffffff1681526020019081526020016000206000828254610d9d9190611c37565b925050819055503373ffffffffffffffffffffffffffffffffffffffff16827fae8785da7bae7df1ae7a3d1838c261e59d1c7294715e21a2d56b9968650a73f434604051610deb919061172a565b60405180910390a38060020154816001015410610fbf577f909c57d5c6ac08245cf2a6de3900e2b868513fa59099b92b27d8db823d92df9c600b600084815260200190815260200160002080549050604051610e47919061172a565b60405180910390a160005b600b600084815260200190815260200160002080549050811015610fa0576000600b60008581526020019081526020016000208281548110610e9757610e96611dcc565b5b9060005260206000200160009054906101000a900473ffffffffffffffffffffffffffffffffffffffff1690506000600a600086815260200190815260200160002060008373ffffffffffffffffffffffffffffffffffffffff1673ffffffffffffffffffffffffffffffffffffffff168152602001908152602001600020549050610f4182610f25610588565b600a610f319190611f2e565b83610f3c9190611f79565b611293565b8173ffffffffffffffffffffffffffffffffffffffff167f4e3883c75cc9c752bb1db2e406a822e4a75067ae77ad9a0a4d179f2709b9e1f68683604051610f89929190611c6b565b60405180910390a250508080600101915050610e52565b5060018160050160006101000a81548160ff0219169083151502179055505b5050565b6009602052816000526040600020602052806000526040600020600091509150505481565b6000600160008473ffffffffffffffffffffffffffffffffffffffff1673ffffffffffffffffffffffffffffffffffffffff16815260200190815260200160002060008373ffffffffffffffffffffffffffffffffffffffff1673ffffffffffffffffffffffffffffffffffffffff16815260200190815260200160002054905092915050565b600033905090565b6110848383836001611315565b505050565b60006110958484610fe8565b90507fffffffffffffffffffffffffffffffffffffffffffffffffffffffffffffffff81146111175781811015611107578281836040517ffb8f41b20000000000000000000000000000000000000000000000000000000081526004016110fe93929190611fbb565b60405180910390fd5b61111684848484036000611315565b5b50505050565b600073ffffffffffffffffffffffffffffffffffffffff168373ffffffffffffffffffffffffffffffffffffffff160361118f5760006040517f96c6fd1e0000000000000000000000000000000000000000000000000000000081526004016111869190611ff2565b60405180910390fd5b600073ffffffffffffffffffffffffffffffffffffffff168273ffffffffffffffffffffffffffffffffffffffff16036112015760006040517fec442f050000000000000000000000000000000000000000000000000000000081526004016111f89190611ff2565b60405180910390fd5b61120c8383836114ec565b505050565b600073ffffffffffffffffffffffffffffffffffffffff168273ffffffffffffffffffffffffffffffffffffffff16036112835760006040517f96c6fd1e00000000000000000000000000000000000000000000000000000000815260040161127a9190611ff2565b60405180910390fd5b61128f826000836114ec565b5050565b600073ffffffffffffffffffffffffffffffffffffffff168273ffffffffffffffffffffffffffffffffffffffff16036113055760006040517fec442f050000000000000000000000000000000000000000000000000000000081526004016112fc9190611ff2565b60405180910390fd5b611311600083836114ec565b5050565b600073ffffffffffffffffffffffffffffffffffffffff168473ffffffffffffffffffffffffffffffffffffffff16036113875760006040517fe602df0500000000000000000000000000000000000000000000000000000000815260040161137e9190611ff2565b60405180910390fd5b600073ffffffffffffffffffffffffffffffffffffffff168373ffffffffffffffffffffffffffffffffffffffff16036113f95760006040517f94280d620000000000000000000000000000000000000000000000000000000081526004016113f09190611ff2565b60405180910390fd5b81600160008673ffffffffffffffffffffffffffffffffffffffff1673ffffffffffffffffffffffffffffffffffffffff16815260200190815260200160002060008573ffffffffffffffffffffffffffffffffffffffff1673ffffffffffffffffffffffffffffffffffffffff1681526020019081526020016000208190555080156114e6578273ffffffffffffffffffffffffffffffffffffffff168473ffffffffffffffffffffffffffffffffffffffff167f8c5be1e5ebec7d5bd14f71427d1e84f3dd0314c0f7b2291e5b200ac8c7c3b925846040516114dd919061172a565b60405180910390a35b50505050565b600073ffffffffffffffffffffffffffffffffffffffff168373ffffffffffffffffffffffffffffffffffffffff160361153e5780600260008282546115329190611c37565b92505081905550611611565b60008060008573ffffffffffffffffffffffffffffffffffffffff1673ffffffffffffffffffffffffffffffffffffffff168152602001908152602001600020549050818110156115ca578381836040517fe450d38c0000000000000000000000000000000000000000000000000000000081526004016115c193929190611fbb565b60405180910390fd5b8181036000808673ffffffffffffffffffffffffffffffffffffffff1673ffffffffffffffffffffffffffffffffffffffff16815260200190815260200160002081905550505b600073ffffffffffffffffffffffffffffffffffffffff168273ffffffffffffffffffffffffffffffffffffffff160361165a57806002600082825403925050819055506116a7565b806000808473ffffffffffffffffffffffffffffffffffffffff1673ffffffffffffffffffffffffffffffffffffffff168152602001908152602001600020600082825401925050819055505b8173ffffffffffffffffffffffffffffffffffffffff168373ffffffffffffffffffffffffffffffffffffffff167fddf252ad1be2c89b69c2b068fc378daa952ba7f163c4a11628f55a4df523b3ef83604051611704919061172a565b60405180910390a3505050565b6000819050919050565b61172481611711565b82525050565b600060208201905061173f600083018461171b565b92915050565b600081519050919050565b600082825260208201905092915050565b60005b8381101561177f578082015181840152602081019050611764565b60008484015250505050565b6000601f19601f8301169050919050565b60006117a782611745565b6117b18185611750565b93506117c1818560208601611761565b6117ca8161178b565b840191505092915050565b600060208201905081810360008301526117ef818461179c565b905092915050565b600080fd5b600073ffffffffffffffffffffffffffffffffffffffff82169050919050565b6000611827826117fc565b9050919050565b6118378161181c565b811461184257600080fd5b50565b6000813590506118548161182e565b92915050565b61186381611711565b811461186e57600080fd5b50565b6000813590506118808161185a565b92915050565b6000806040838503121561189d5761189c6117f7565b5b60006118ab85828601611845565b92505060206118bc85828601611871565b9150509250929050565b60008115159050919050565b6118db816118c6565b82525050565b60006020820190506118f660008301846118d2565b92915050565b600080600060608486031215611915576119146117f7565b5b600061192386828701611845565b935050602061193486828701611845565b925050604061194586828701611871565b9150509250925092565b600060ff82169050919050565b6119658161194f565b82525050565b6000602082019050611980600083018461195c565b92915050565b60006020828403121561199c5761199b6117f7565b5b60006119aa84828501611871565b91505092915050565b600080604083850312156119ca576119c96117f7565b5b60006119d885828601611871565b92505060206119e985828601611845565b9150509250929050565b600060208284031215611a0957611a086117f7565b5b6000611a1784828501611845565b91505092915050565b611a298161181c565b82525050565b600060c082019050611a446000830189611a20565b611a51602083018861171b565b611a5e604083018761171b565b611a6b606083018661171b565b611a78608083018561171b565b611a8560a08301846118d2565b979650505050505050565b60008060408385031215611aa757611aa66117f7565b5b6000611ab585828601611845565b9250506020611ac685828601611845565b9150509250929050565b7f4e487b7100000000000000000000000000000000000000000000000000000000600052602260045260246000fd5b60006002820490506001821680611b1757607f821691505b602082108103611b2a57611b29611ad0565b5b50919050565b7f596f7520646964206e6f742063726561746520746869732043616d706169676e600082015250565b6000611b66602083611750565b9150611b7182611b30565b602082019050919050565b60006020820190508181036000830152611b9581611b59565b9050919050565b7f43616d706169676e2068617320616c7265616479207374617274656400000000600082015250565b6000611bd2601c83611750565b9150611bdd82611b9c565b602082019050919050565b60006020820190508181036000830152611c0181611bc5565b9050919050565b7f4e487b7100000000000000000000000000000000000000000000000000000000600052601160045260246000fd5b6000611c4282611711565b9150611c4d83611711565b9250828201905080821115611c6557611c64611c08565b5b92915050565b6000604082019050611c80600083018561171b565b611c8d602083018461171b565b9392505050565b7f43616e6e6f7420636f6e74726962757465206e6f7468696e6721000000000000600082015250565b6000611cca601a83611750565b9150611cd582611c94565b602082019050919050565b60006020820190508181036000830152611cf981611cbd565b9050919050565b7f43616d706169676e2068617320616c726561647920656e646564000000000000600082015250565b6000611d36601a83611750565b9150611d4182611d00565b602082019050919050565b60006020820190508181036000830152611d6581611d29565b9050919050565b7f4e487b7100000000000000000000000000000000000000000000000000000000600052601260045260246000fd5b6000611da682611711565b9150611db183611711565b925082611dc157611dc0611d6c565b5b828204905092915050565b7f4e487b7100000000000000000000000000000000000000000000000000000000600052603260045260246000fd5b60008160011c9050919050565b6000808291508390505b6001851115611e5257808604811115611e2e57611e2d611c08565b5b6001851615611e3d5780820291505b8081029050611e4b85611dfb565b9450611e12565b94509492505050565b600082611e6b5760019050611f27565b81611e795760009050611f27565b8160018114611e8f5760028114611e9957611ec8565b6001915050611f27565b60ff841115611eab57611eaa611c08565b5b8360020a915084821115611ec257611ec1611c08565b5b50611f27565b5060208310610133831016604e8410600b8410161715611efd5782820a905083811115611ef857611ef7611c08565b5b611f27565b611f0a8484846001611e08565b92509050818404811115611f2157611f20611c08565b5b81810290505b9392505050565b6000611f3982611711565b9150611f448361194f565b9250611f717fffffffffffffffffffffffffffffffffffffffffffffffffffffffffffffffff8484611e5b565b905092915050565b6000611f8482611711565b9150611f8f83611711565b9250828202611f9d81611711565b91508282048414831517611fb457611fb3611c08565b5b5092915050565b6000606082019050611fd06000830186611a20565b611fdd602083018561171b565b611fea604083018461171b565b949350505050565b60006020820190506120076000830184611a20565b9291505056fea26469706673582212205c2042bd6c1ba9a3d68bc8ff97e4367be5899db17f871dbeb7871c3e991b882c64736f6c63430008180033",
  "linkReferences": {},
  "deployedLinkReferences": {}
}